:100000000C945D000C9485000C9485000C94850084
:100010000C9485000C9485000C9485000C9485004C
:100020000C9485000C9485000C9485000C9485003C
:100030000C9485000C9485000C9485000C9485002C
:100040000C9402020C9485000C9485000C9485009D
:100050000C9485000C9485000C9485000C9485000C
:100060000C9485000C94850000000008000201003B
:100070000003040700000000000000000000000072
:10008000250028002B0000000000240027002A0083
:10009000040404040404040402020202020203032E
:1000A0000303030301020408102040800102040836
:1000B0001020010204081020780311241FBECFEF86
:1000C000D8E0DEBFCDBF11E0A0E0B1E0E8E6F8E0A7
:1000D00002C005900D92A030B107D9F721E0A0E051
:1000E000B1E001C01D92A332B207E1F710E0CDE507
:1000F000D0E004C02197FE010E941104CC35D10745
:10010000C9F70E944C020C9432040C94000090E059
:10011000FC01EC55FF4F249180579F4FFC018491C7
:10012000882399F090E0880F991FFC01EA57FF4F50
:10013000A591B491FC01E458FF4F859194918FB73C
:10014000F894EC91E22BEC938FBF089590E0FC01C2
:10015000E859FF4F2491FC01EC55FF4F3491FC010D
:10016000E057FF4FE491EE23C9F0222339F023300A
:1001700001F1A8F4213019F1223029F1F0E0EE0F5D
:10018000FF1FE458FF4FA591B4918FB7F894EC91FD
:10019000611126C030953E233C938FBF08952730D0
:1001A000A9F02830C9F0243049F7809180008F7D74
:1001B00003C0809180008F7780938000DFCF84B56B
:1001C0008F7784BDDBCF84B58F7DFBCF8091B0006E
:1001D0008F778093B000D2CF8091B0008F7DF9CF20
:1001E0003E2BDACFCF93DF93EC01809111019091F8
:1001F0001201029749F4C130D10509F43BC06CF5F6
:1002000060E0209709F437C08091110190911201AC
:10021000049749F4C130D10509F45CC00CF037C033
:10022000209709F442C08091110190911201059725
:1002300009F0E5C0CA30D10508F0E1C0FE01ED5D6E
:10024000FE4F0C94110482018E019F01B501D00173
:10025000D201D901E501F601FD01C230D105A9F0B5
:1002600060E0C330D10581F6809115010E94A6009F
:1002700060E006C061E0809115010E94A60061E087
:10028000809117010E94A600BFCF61E0EDCFC23080
:10029000D10539F1C330D10509F0C5CF61E08091B6
:1002A00015010E94A60060E022C061E08091150166
:1002B0000E94A60060E0809117010E94A60061E004
:1002C000809119010E94A60060E080911B010E94AC
:1002D000A600A9CF60E0809115010E94A60061E010
:1002E000EACF60E0809115010E94A60061E0809154
:1002F00017010E94A60060E0809119010E94A600EB
:1003000061E0E3CF60E0809115010E94A60061E00A
:10031000809117010E94A60061E00BC060E080910F
:1003200015010E94A60061E0809117010E94A600BD
:1003300060E0809119010E94A60060E010C060E0BA
:10034000809115010E94A60061E0809117010E9432
:10035000A60060E0809119010E94A60061E08091F2
:100360001B010E94A60061E015C060E080911501AC
:100370000E94A60061E0809117010E94A60060E043
:10038000809119010E94A60061E080911B010E94EA
:10039000A60060E080911D01DF91CF910C94A60032
:1003A00061E0E4CF61E0809115010E94A60060E069
:1003B000E2CF61E0809115010E94A60060E080918B
:1003C00017010E94A60061E0DBCF61E0809115017A
:1003D0000E94A60060E0809117010E94A60061E0E3
:1003E000809119010E94A60060E0CFCF61E080916A
:1003F00015010E94A60060E08BCF60E0F8CFDF918E
:10040000CF9108951F920F920FB60F9211242F9340
:100410003F938F939F93AF93BF93809101019091EE
:100420000201A0910301B09104013091000123E089
:10043000230F2D3758F50196A11DB11D2093000102
:100440008093010190930201A0930301B0930401F2
:100450008091050190910601A0910701B0910801DA
:100460000196A11DB11D8093050190930601A093F3
:100470000701B0930801BF91AF919F918F913F9178
:100480002F910F900FBE0F901F90189526E8230F05
:100490000296A11DB11DD2CF789484B5826084BD2F
:1004A00084B5816084BD85B5826085BD85B5816078
:1004B00085BD80916E00816080936E0010928100F6
:1004C00080918100826080938100809181008160B1
:1004D0008093810080918000816080938000809172
:1004E000B10084608093B1008091B00081608093FE
:1004F000B00080917A00846080937A0080917A00C5
:10050000826080937A0080917A00816080937A0083
:1005100080917A00806880937A001092C100CC2488
:10052000CA9453E0D52EE12CF12C812C67E8962E4D
:1005300063E9A62E63E0B62E70E0672E70E0772E9A
:1005400001E010E080E480937C0080917A00806478
:1005500080937A0080917A0086FDFCCFA09178008C
:1005600080917900B82F24E630E00E941704A7019B
:1005700096010E94AD031901121613060CF0B1C0CA
:1005800020910F0130911001032E000C440B550BEC
:10059000C501B4010E94AD03032C000C44085508AA
:1005A000CA01B901A20191010E94AD0320930B0180
:1005B00030930C0140930D0150930E0110930A01EA
:1005C00000930901C2E0D0E0209709F48AC03FB748
:1005D000F8948091050190910601A0910701B091D6
:1005E000080126B5A89B05C02F3F19F00196A11D53
:1005F000B11D3FBFBA2FA92F982F8827820F911DB9
:10060000A11DB11D42E0880F991FAA1FBB1F4A956B
:10061000D1F740911F01509120016091210170910B
:1006200022011C012D01241A350A460A570A40915D
:100630000B0150910C0160910D0170910E01241677
:1006400035064606570608F4BFCF80931F019093E6
:100650002001A0932101B093220180911301909178
:1006600014012091090130910A012130310529F549
:100670000196909314018093130120910F01309102
:1006800010018217930721F41092140110921301A4
:1006900021978091130190911401209111013091C3
:1006A00012016AE070E02530310511F064E070E07D
:1006B0000E94FD030E94F20087CF892B41F48091B4
:1006C0000F01909110019093140180931301809178
:1006D00013019091140101979093140180931301D9
:1006E000D7CF6114710409F42DCF0E9400002ACFE6
:1006F000CF93DF93C9E0D1E01B861A861982188256
:100700001E8A1F8A188E198E88EC90E09F838E8334
:1007100088E090E09D878C8789E090E09F878E87B6
:100720008AE090E0998B888B8BE090E09B8B8A8BA2
:1007300088E00E9487008E850E94870088890E9439
:1007400087008A890E9487001D8A1C8A84E090E0C5
:1007500099878887DF91CF910895052E97FB1EF426
:1007600000940E94C40357FD07D00E94CC0307FCED
:1007700003D04EF40C94C4035095409530952195C8
:100780003F4F4F4F5F4F08959095809570956195BD
:100790007F4F8F4F9F4F0895A1E21A2EAA1BBB1BBC
:1007A000FD010DC0AA1FBB1FEE1FFF1FA217B3073D
:1007B000E407F50720F0A21BB30BE40BF50B661F53
:1007C000771F881F991F1A9469F760957095809517
:1007D00090959B01AC01BD01CF010895A29FB0018E
:1007E000B39FC001A39F700D811D1124911DB29F65
:1007F000700D811D1124911D089597FB072E16F48D
:10080000009407D077FD09D00E941E0407FC05D094
:100810003EF4909581959F4F0895709561957F4F17
:100820000895EE0FFF1F0590F491E02D09940E94AA
:10083000EE03B7FF0895821B930B0895AA1BBB1B01
:1008400051E107C0AA1FBB1FA617B70710F0A61BD0
:10085000B70B881F991F5A95A9F780959095BC01F1
:08086000CD010895F894FFCFCB
:00000001FF
